{
    "_format": "hh-sol-artifact-1",
    "contractName": "NewChessNFT",
    "sourceName": "contracts/NewChessNFT.sol",
    "abi": [
        {
            "inputs": [],
            "stateMutability": "nonpayable",
            "type": "constructor"
        },
        {
            "anonymous": false,
            "inputs": [
                {
                    "indexed": true,
                    "internalType": "address",
                    "name": "owner",
                    "type": "address"
                },
                {
                    "indexed": true,
                    "internalType": "address",
                    "name": "approved",
                    "type": "address"
                },
                {
                    "indexed": true,
                    "internalType": "uint256",
                    "name": "tokenId",
                    "type": "uint256"
                }
            ],
            "name": "Approval",
            "type": "event"
        },
        {
            "anonymous": false,
            "inputs": [
                {
                    "indexed": true,
                    "internalType": "address",
                    "name": "owner",
                    "type": "address"
                },
                {
                    "indexed": true,
                    "internalType": "address",
                    "name": "operator",
                    "type": "address"
                },
                {
                    "indexed": false,
                    "internalType": "bool",
                    "name": "approved",
                    "type": "bool"
                }
            ],
            "name": "ApprovalForAll",
            "type": "event"
        },
        {
            "anonymous": false,
            "inputs": [
                {
                    "indexed": false,
                    "internalType": "address",
                    "name": "sender",
                    "type": "address"
                },
                {
                    "indexed": false,
                    "internalType": "uint256",
                    "name": "tokenID",
                    "type": "uint256"
                }
            ],
            "name": "NewChessNFTMinted",
            "type": "event"
        },
        {
            "anonymous": false,
            "inputs": [
                {
                    "indexed": true,
                    "internalType": "address",
                    "name": "from",
                    "type": "address"
                },
                {
                    "indexed": true,
                    "internalType": "address",
                    "name": "to",
                    "type": "address"
                },
                {
                    "indexed": true,
                    "internalType": "uint256",
                    "name": "tokenId",
                    "type": "uint256"
                }
            ],
            "name": "Transfer",
            "type": "event"
        },
        {
            "inputs": [
                {
                    "internalType": "address",
                    "name": "to",
                    "type": "address"
                },
                {
                    "internalType": "uint256",
                    "name": "tokenId",
                    "type": "uint256"
                }
            ],
            "name": "approve",
            "outputs": [],
            "stateMutability": "nonpayable",
            "type": "function"
        },
        {
            "inputs": [
                {
                    "internalType": "address",
                    "name": "owner",
                    "type": "address"
                }
            ],
            "name": "balanceOf",
            "outputs": [
                {
                    "internalType": "uint256",
                    "name": "",
                    "type": "uint256"
                }
            ],
            "stateMutability": "view",
            "type": "function"
        },
        {
            "inputs": [
                {
                    "internalType": "uint256",
                    "name": "tokenId",
                    "type": "uint256"
                }
            ],
            "name": "getApproved",
            "outputs": [
                {
                    "internalType": "address",
                    "name": "",
                    "type": "address"
                }
            ],
            "stateMutability": "view",
            "type": "function"
        },
        {
            "inputs": [
                {
                    "internalType": "address",
                    "name": "owner",
                    "type": "address"
                },
                {
                    "internalType": "address",
                    "name": "operator",
                    "type": "address"
                }
            ],
            "name": "isApprovedForAll",
            "outputs": [
                {
                    "internalType": "bool",
                    "name": "",
                    "type": "bool"
                }
            ],
            "stateMutability": "view",
            "type": "function"
        },
        {
            "inputs": [
                {
                    "internalType": "string",
                    "name": "boardState",
                    "type": "string"
                }
            ],
            "name": "makeNewChessNFT",
            "outputs": [],
            "stateMutability": "nonpayable",
            "type": "function"
        },
        {
            "inputs": [],
            "name": "name",
            "outputs": [
                {
                    "internalType": "string",
                    "name": "",
                    "type": "string"
                }
            ],
            "stateMutability": "view",
            "type": "function"
        },
        {
            "inputs": [
                {
                    "internalType": "uint256",
                    "name": "tokenId",
                    "type": "uint256"
                }
            ],
            "name": "ownerOf",
            "outputs": [
                {
                    "internalType": "address",
                    "name": "",
                    "type": "address"
                }
            ],
            "stateMutability": "view",
            "type": "function"
        },
        {
            "inputs": [
                {
                    "internalType": "address",
                    "name": "from",
                    "type": "address"
                },
                {
                    "internalType": "address",
                    "name": "to",
                    "type": "address"
                },
                {
                    "internalType": "uint256",
                    "name": "tokenId",
                    "type": "uint256"
                }
            ],
            "name": "safeTransferFrom",
            "outputs": [],
            "stateMutability": "nonpayable",
            "type": "function"
        },
        {
            "inputs": [
                {
                    "internalType": "address",
                    "name": "from",
                    "type": "address"
                },
                {
                    "internalType": "address",
                    "name": "to",
                    "type": "address"
                },
                {
                    "internalType": "uint256",
                    "name": "tokenId",
                    "type": "uint256"
                },
                {
                    "internalType": "bytes",
                    "name": "_data",
                    "type": "bytes"
                }
            ],
            "name": "safeTransferFrom",
            "outputs": [],
            "stateMutability": "nonpayable",
            "type": "function"
        },
        {
            "inputs": [
                {
                    "internalType": "address",
                    "name": "operator",
                    "type": "address"
                },
                {
                    "internalType": "bool",
                    "name": "approved",
                    "type": "bool"
                }
            ],
            "name": "setApprovalForAll",
            "outputs": [],
            "stateMutability": "nonpayable",
            "type": "function"
        },
        {
            "inputs": [
                {
                    "internalType": "bytes4",
                    "name": "interfaceId",
                    "type": "bytes4"
                }
            ],
            "name": "supportsInterface",
            "outputs": [
                {
                    "internalType": "bool",
                    "name": "",
                    "type": "bool"
                }
            ],
            "stateMutability": "view",
            "type": "function"
        },
        {
            "inputs": [],
            "name": "symbol",
            "outputs": [
                {
                    "internalType": "string",
                    "name": "",
                    "type": "string"
                }
            ],
            "stateMutability": "view",
            "type": "function"
        },
        {
            "inputs": [
                {
                    "internalType": "uint256",
                    "name": "tokenId",
                    "type": "uint256"
                }
            ],
            "name": "tokenURI",
            "outputs": [
                {
                    "internalType": "string",
                    "name": "",
                    "type": "string"
                }
            ],
            "stateMutability": "view",
            "type": "function"
        },
        {
            "inputs": [
                {
                    "internalType": "address",
                    "name": "from",
                    "type": "address"
                },
                {
                    "internalType": "address",
                    "name": "to",
                    "type": "address"
                },
                {
                    "internalType": "uint256",
                    "name": "tokenId",
                    "type": "uint256"
                }
            ],
            "name": "transferFrom",
            "outputs": [],
            "stateMutability": "nonpayable",
            "type": "function"
        }
    ],
    "bytecode": "0x60806040523480156200001157600080fd5b506040518060400160405280600981526020017f5371756172654e465400000000000000000000000000000000000000000000008152506040518060400160405280600681526020017f5351554152450000000000000000000000000000000000000000000000000000815250816000908051906020019062000096929190620001cf565b508060019080519060200190620000af929190620001cf565b505050620000fd6040518060400160405280602081526020017f5468697320697320746865206e6577206368657373204e46542120576f6168218152506200010360201b62000dc21760201c565b620003ac565b620001a3816040516024016200011a9190620002c0565b6040516020818303038152906040527f41304fac000000000000000000000000000000000000000000000000000000007bffffffffffffffffffffffffffffffffffffffffffffffffffffffff19166020820180517bffffffffffffffffffffffffffffffffffffffffffffffffffffffff8381831617835250505050620001a660201b60201c565b50565b60008151905060006a636f6e736f6c652e6c6f679050602083016000808483855afa5050505050565b828054620001dd9062000336565b90600052602060002090601f0160209004810192826200020157600085556200024d565b82601f106200021c57805160ff19168380011785556200024d565b828001600101855582156200024d579182015b828111156200024c5782518255916020019190600101906200022f565b5b5090506200025c919062000260565b5090565b5b808211156200027b57600081600090555060010162000261565b5090565b60006200028c82620002e4565b620002988185620002ef565b9350620002aa81856020860162000300565b620002b5816200039b565b840191505092915050565b60006020820190508181036000830152620002dc81846200027f565b905092915050565b600081519050919050565b600082825260208201905092915050565b60005b838110156200032057808201518184015260208101905062000303565b8381111562000330576000848401525b50505050565b600060028204905060018216806200034f57607f821691505b602082108114156200036657620003656200036c565b5b50919050565b7f4e487b7100000000000000000000000000000000000000000000000000000000600052602260045260246000fd5b6000601f19601f8301169050919050565b61369980620003bc6000396000f3fe608060405234801561001057600080fd5b50600436106100ea5760003560e01c806370a082311161008c578063a22cb46511610066578063a22cb4651461025b578063b88d4fde14610277578063c87b56dd14610293578063e985e9c5146102c3576100ea565b806370a08231146101f157806377c08dca1461022157806395d89b411461023d576100ea565b8063095ea7b3116100c8578063095ea7b31461016d57806323b872dd1461018957806342842e0e146101a55780636352211e146101c1576100ea565b806301ffc9a7146100ef57806306fdde031461011f578063081812fc1461013d575b600080fd5b6101096004803603810190610104919061225f565b6102f3565b6040516101169190612eb0565b60405180910390f35b6101276103d5565b6040516101349190612ecb565b60405180910390f35b610157600480360381019061015291906122f2565b610467565b6040516101649190612e20565b60405180910390f35b61018760048036038101906101829190612223565b6104ec565b005b6101a3600480360381019061019e919061211d565b610604565b005b6101bf60048036038101906101ba919061211d565b610664565b005b6101db60048036038101906101d691906122f2565b610684565b6040516101e89190612e20565b60405180910390f35b61020b600480360381019061020691906120b8565b610736565b604051610218919061312b565b60405180910390f35b61023b600480360381019061023691906122b1565b6107ee565b005b610245610967565b6040516102529190612ecb565b60405180910390f35b610275600480360381019061027091906121e7565b6109f9565b005b610291600480360381019061028c919061216c565b610b7a565b005b6102ad60048036038101906102a891906122f2565b610bdc565b6040516102ba9190612ecb565b60405180910390f35b6102dd60048036038101906102d891906120e1565b610d2e565b6040516102ea9190612eb0565b60405180910390f35b60007f80ac58cd000000000000000000000000000000000000000000000000000000007bffffffffffffffffffffffffffffffffffffffffffffffffffffffff1916827bffffffffffffffffffffffffffffffffffffffffffffffffffffffff191614806103be57507f5b5e139f000000000000000000000000000000000000000000000000000000007bffffffffffffffffffffffffffffffffffffffffffffffffffffffff1916827bffffffffffffffffffffffffffffffffffffffffffffffffffffffff1916145b806103ce57506103cd82610e5b565b5b9050919050565b6060600080546103e490613429565b80601f016020809104026020016040519081016040528092919081815260200182805461041090613429565b801561045d5780601f106104325761010080835404028352916020019161045d565b820191906000526020600020905b81548152906001019060200180831161044057829003601f168201915b5050505050905090565b600061047282610ec5565b6104b1576040517f08c379a00000000000000000000000000000000000000000000000000000000081526004016104a89061308b565b60405180910390fd5b6004600083815260200190815260200160002060009054906101000a900473ffffffffffffffffffffffffffffffffffffffff169050919050565b60006104f782610684565b90508073ffffffffffffffffffffffffffffffffffffffff168373ffffffffffffffffffffffffffffffffffffffff161415610568576040517f08c379a000000000000000000000000000000000000000000000000000000000815260040161055f906130eb565b60405180910390fd5b8073ffffffffffffffffffffffffffffffffffffffff16610587610f31565b73ffffffffffffffffffffffffffffffffffffffff1614806105b657506105b5816105b0610f31565b610d2e565b5b6105f5576040517f08c379a00000000000000000000000000000000000000000000000000000000081526004016105ec90612fcb565b60405180910390fd5b6105ff8383610f39565b505050565b61061561060f610f31565b82610ff2565b610654576040517f08c379a000000000000000000000000000000000000000000000000000000000815260040161064b9061310b565b60405180910390fd5b61065f8383836110d0565b505050565b61067f83838360405180602001604052806000815250610b7a565b505050565b6000806002600084815260200190815260200160002060009054906101000a900473ffffffffffffffffffffffffffffffffffffffff169050600073ffffffffffffffffffffffffffffffffffffffff168173ffffffffffffffffffffffffffffffffffffffff16141561072d576040517f08c379a00000000000000000000000000000000000000000000000000000000081526004016107249061300b565b60405180910390fd5b80915050919050565b60008073ffffffffffffffffffffffffffffffffffffffff168273ffffffffffffffffffffffffffffffffffffffff1614156107a7576040517f08c379a000000000000000000000000000000000000000000000000000000000815260040161079e90612feb565b60405180910390fd5b600360008373ffffffffffffffffffffffffffffffffffffffff1673ffffffffffffffffffffffffffffffffffffffff168152602001908152602001600020549050919050565b60006107fa600761132c565b905060006108078261133a565b9050600061083b8285848786604051602001610827959493929190612d2f565b60405160208183030381529060405261150f565b90506000816040516020016108509190612dfe565b604051602081830303815290604052905061089f6040518060400160405280601581526020017f0a2d2d2d2d2d2d2d2d2d2d2d2d2d2d2d2d2d2d2d2d0000000000000000000000815250610dc2565b6108a881610dc2565b6108e66040518060400160405280601581526020017f2d2d2d2d2d2d2d2d2d2d2d2d2d2d2d2d2d2d2d2d0a0000000000000000000000815250610dc2565b6108f033856116cd565b6108fa84826116eb565b610904600761175f565b6109276040518060600160405280602581526020016135ff602591398533611775565b7f4d54aee36c633a15bf5903b26fd1a72a0850ca840fbdfbdf1dab85517c732e443385604051610958929190612e87565b60405180910390a15050505050565b60606001805461097690613429565b80601f01602080910402602001604051908101604052809291908181526020018280546109a290613429565b80156109ef5780601f106109c4576101008083540402835291602001916109ef565b820191906000526020600020905b8154815290600101906020018083116109d257829003601f168201915b5050505050905090565b610a01610f31565b73ffffffffffffffffffffffffffffffffffffffff168273ffffffffffffffffffffffffffffffffffffffff161415610a6f576040517f08c379a0000000000000000000000000000000000000000000000000000000008152600401610a6690612f8b565b60405180910390fd5b8060056000610a7c610f31565b73ffffffffffffffffffffffffffffffffffffffff1673ffffffffffffffffffffffffffffffffffffffff16815260200190815260200160002060008473ffffffffffffffffffffffffffffffffffffffff1673ffffffffffffffffffffffffffffffffffffffff16815260200190815260200160002060006101000a81548160ff0219169083151502179055508173ffffffffffffffffffffffffffffffffffffffff16610b29610f31565b73ffffffffffffffffffffffffffffffffffffffff167f17307eab39ab6107e8899845ad3d59bd9653f200f220920489ca2b5937696c3183604051610b6e9190612eb0565b60405180910390a35050565b610b8b610b85610f31565b83610ff2565b610bca576040517f08c379a0000000000000000000000000000000000000000000000000000000008152600401610bc19061310b565b60405180910390fd5b610bd684848484611814565b50505050565b6060610be782610ec5565b610c26576040517f08c379a0000000000000000000000000000000000000000000000000000000008152600401610c1d9061306b565b60405180910390fd5b6000600660008481526020019081526020016000208054610c4690613429565b80601f0160208091040260200160405190810160405280929190818152602001828054610c7290613429565b8015610cbf5780601f10610c9457610100808354040283529160200191610cbf565b820191906000526020600020905b815481529060010190602001808311610ca257829003601f168201915b505050505090506000610cd0611870565b9050600081511415610ce6578192505050610d29565b600082511115610d1b578082604051602001610d03929190612d0b565b60405160208183030381529060405292505050610d29565b610d2484611887565b925050505b919050565b6000600560008473ffffffffffffffffffffffffffffffffffffffff1673ffffffffffffffffffffffffffffffffffffffff16815260200190815260200160002060008373ffffffffffffffffffffffffffffffffffffffff1673ffffffffffffffffffffffffffffffffffffffff16815260200190815260200160002060009054906101000a900460ff16905092915050565b610e5881604051602401610dd69190612ecb565b6040516020818303038152906040527f41304fac000000000000000000000000000000000000000000000000000000007bffffffffffffffffffffffffffffffffffffffffffffffffffffffff19166020820180517bffffffffffffffffffffffffffffffffffffffffffffffffffffffff838183161783525050505061192e565b50565b60007f01ffc9a7000000000000000000000000000000000000000000000000000000007bffffffffffffffffffffffffffffffffffffffffffffffffffffffff1916827bffffffffffffffffffffffffffffffffffffffffffffffffffffffff1916149050919050565b60008073ffffffffffffffffffffffffffffffffffffffff166002600084815260200190815260200160002060009054906101000a900473ffffffffffffffffffffffffffffffffffffffff1673ffffffffffffffffffffffffffffffffffffffff1614159050919050565b600033905090565b816004600083815260200190815260200160002060006101000a81548173ffffffffffffffffffffffffffffffffffffffff021916908373ffffffffffffffffffffffffffffffffffffffff160217905550808273ffffffffffffffffffffffffffffffffffffffff16610fac83610684565b73ffffffffffffffffffffffffffffffffffffffff167f8c5be1e5ebec7d5bd14f71427d1e84f3dd0314c0f7b2291e5b200ac8c7c3b92560405160405180910390a45050565b6000610ffd82610ec5565b61103c576040517f08c379a000000000000000000000000000000000000000000000000000000000815260040161103390612fab565b60405180910390fd5b600061104783610684565b90508073ffffffffffffffffffffffffffffffffffffffff168473ffffffffffffffffffffffffffffffffffffffff1614806110b657508373ffffffffffffffffffffffffffffffffffffffff1661109e84610467565b73ffffffffffffffffffffffffffffffffffffffff16145b806110c757506110c68185610d2e565b5b91505092915050565b8273ffffffffffffffffffffffffffffffffffffffff166110f082610684565b73ffffffffffffffffffffffffffffffffffffffff1614611146576040517f08c379a000000000000000000000000000000000000000000000000000000000815260040161113d906130ab565b60405180910390fd5b600073ffffffffffffffffffffffffffffffffffffffff168273ffffffffffffffffffffffffffffffffffffffff1614156111b6576040517f08c379a00000000000000000000000000000000000000000000000000000000081526004016111ad90612f6b565b60405180910390fd5b6111c1838383611957565b6111cc600082610f39565b6001600360008573ffffffffffffffffffffffffffffffffffffffff1673ffffffffffffffffffffffffffffffffffffffff168152602001908152602001600020600082825461121c9190613332565b925050819055506001600360008473ffffffffffffffffffffffffffffffffffffffff1673ffffffffffffffffffffffffffffffffffffffff1681526020019081526020016000206000828254611273919061321a565b92505081905550816002600083815260200190815260200160002060006101000a81548173ffffffffffffffffffffffffffffffffffffffff021916908373ffffffffffffffffffffffffffffffffffffffff160217905550808273ffffffffffffffffffffffffffffffffffffffff168473ffffffffffffffffffffffffffffffffffffffff167fddf252ad1be2c89b69c2b068fc378daa952ba7f163c4a11628f55a4df523b3ef60405160405180910390a4505050565b600081600001549050919050565b60606000821415611382576040518060400160405280600181526020017f3000000000000000000000000000000000000000000000000000000000000000815250905061150a565b600082905060005b600082146113b457808061139d9061345b565b915050600a826113ad91906132a7565b915061138a565b60008167ffffffffffffffff8111156113f6577f4e487b7100000000000000000000000000000000000000000000000000000000600052604160045260246000fd5b6040519080825280601f01601f1916602001820160405280156114285781602001600182028036833780820191505090505b50905060008290505b60008614611502576001816114469190613332565b90506000600a808861145891906132a7565b61146291906132d8565b8761146d9190613332565b60306114799190613270565b905060008160f81b9050808484815181106114bd577f4e487b7100000000000000000000000000000000000000000000000000000000600052603260045260246000fd5b60200101907effffffffffffffffffffffffffffffffffffffffffffffffffffffffffffff1916908160001a905350600a886114f991906132a7565b97505050611431565b819450505050505b919050565b6060600082519050600081141561153857604051806020016040528060008152509150506116c8565b60006003600283611549919061321a565b61155391906132a7565b600461155f91906132d8565b90506000602082611570919061321a565b67ffffffffffffffff8111156115af577f4e487b7100000000000000000000000000000000000000000000000000000000600052604160045260246000fd5b6040519080825280601f01601f1916602001820160405280156115e15781602001600182028036833780820191505090505b5090506000604051806060016040528060408152602001613624604091399050600181016020830160005b868110156116855760038101905062ffffff818a015116603f8160121c168401518060081b905060ff603f83600c1c1686015116810190508060081b905060ff603f8360061c1686015116810190508060081b905060ff603f831686015116810190508060e01b9050808452600484019350505061160c565b50600386066001811461169f57600281146116af576116ba565b613d3d60f01b60028303526116ba565b603d60f81b60018303525b508484525050819450505050505b919050565b6116e782826040518060200160405280600081525061195c565b5050565b6116f482610ec5565b611733576040517f08c379a000000000000000000000000000000000000000000000000000000000815260040161172a9061302b565b60405180910390fd5b8060066000848152602001908152602001600020908051906020019061175a929190611edc565b505050565b6001816000016000828254019250508190555050565b61180f83838360405160240161178d93929190612eed565b6040516020818303038152906040527fe3849f79000000000000000000000000000000000000000000000000000000007bffffffffffffffffffffffffffffffffffffffffffffffffffffffff19166020820180517bffffffffffffffffffffffffffffffffffffffffffffffffffffffff838183161783525050505061192e565b505050565b61181f8484846110d0565b61182b848484846119b7565b61186a576040517f08c379a000000000000000000000000000000000000000000000000000000000815260040161186190612f2b565b60405180910390fd5b50505050565b606060405180602001604052806000815250905090565b606061189282610ec5565b6118d1576040517f08c379a00000000000000000000000000000000000000000000000000000000081526004016118c8906130cb565b60405180910390fd5b60006118db611870565b905060008151116118fb5760405180602001604052806000815250611926565b8061190584611b4e565b604051602001611916929190612d0b565b6040516020818303038152906040525b915050919050565b60008151905060006a636f6e736f6c652e6c6f679050602083016000808483855afa5050505050565b505050565b6119668383611cfb565b61197360008484846119b7565b6119b2576040517f08c379a00000000000000000000000000000000000000000000000000000000081526004016119a990612f2b565b60405180910390fd5b505050565b60006119d88473ffffffffffffffffffffffffffffffffffffffff16611ec9565b15611b41578373ffffffffffffffffffffffffffffffffffffffff1663150b7a02611a01610f31565b8786866040518563ffffffff1660e01b8152600401611a239493929190612e3b565b602060405180830381600087803b158015611a3d57600080fd5b505af1925050508015611a6e57506040513d601f19601f82011682018060405250810190611a6b9190612288565b60015b611af1573d8060008114611a9e576040519150601f19603f3d011682016040523d82523d6000602084013e611aa3565b606091505b50600081511415611ae9576040517f08c379a0000000000000000000000000000000000000000000000000000000008152600401611ae090612f2b565b60405180910390fd5b805181602001fd5b63150b7a0260e01b7bffffffffffffffffffffffffffffffffffffffffffffffffffffffff1916817bffffffffffffffffffffffffffffffffffffffffffffffffffffffff191614915050611b46565b600190505b949350505050565b60606000821415611b96576040518060400160405280600181526020017f30000000000000000000000000000000000000000000000000000000000000008152509050611cf6565b600082905060005b60008214611bc8578080611bb19061345b565b915050600a82611bc191906132a7565b9150611b9e565b60008167ffffffffffffffff811115611c0a577f4e487b7100000000000000000000000000000000000000000000000000000000600052604160045260246000fd5b6040519080825280601f01601f191660200182016040528015611c3c5781602001600182028036833780820191505090505b5090505b60008514611cef57600182611c559190613332565b9150600a85611c6491906134a4565b6030611c70919061321a565b60f81b818381518110611cac577f4e487b7100000000000000000000000000000000000000000000000000000000600052603260045260246000fd5b60200101907effffffffffffffffffffffffffffffffffffffffffffffffffffffffffffff1916908160001a905350600a85611ce891906132a7565b9450611c40565b8093505050505b919050565b600073ffffffffffffffffffffffffffffffffffffffff168273ffffffffffffffffffffffffffffffffffffffff161415611d6b576040517f08c379a0000000000000000000000000000000000000000000000000000000008152600401611d629061304b565b60405180910390fd5b611d7481610ec5565b15611db4576040517f08c379a0000000000000000000000000000000000000000000000000000000008152600401611dab90612f4b565b60405180910390fd5b611dc060008383611957565b6001600360008473ffffffffffffffffffffffffffffffffffffffff1673ffffffffffffffffffffffffffffffffffffffff1681526020019081526020016000206000828254611e10919061321a565b92505081905550816002600083815260200190815260200160002060006101000a81548173ffffffffffffffffffffffffffffffffffffffff021916908373ffffffffffffffffffffffffffffffffffffffff160217905550808273ffffffffffffffffffffffffffffffffffffffff16600073ffffffffffffffffffffffffffffffffffffffff167fddf252ad1be2c89b69c2b068fc378daa952ba7f163c4a11628f55a4df523b3ef60405160405180910390a45050565b600080823b905060008111915050919050565b828054611ee890613429565b90600052602060002090601f016020900481019282611f0a5760008555611f51565b82601f10611f2357805160ff1916838001178555611f51565b82800160010185558215611f51579182015b82811115611f50578251825591602001919060010190611f35565b5b509050611f5e9190611f62565b5090565b5b80821115611f7b576000816000905550600101611f63565b5090565b6000611f92611f8d84613177565b613146565b905082815260208101848484011115611faa57600080fd5b611fb58482856133e7565b509392505050565b6000611fd0611fcb846131a7565b613146565b905082815260208101848484011115611fe857600080fd5b611ff38482856133e7565b509392505050565b60008135905061200a816135a2565b92915050565b60008135905061201f816135b9565b92915050565b600081359050612034816135d0565b92915050565b600081519050612049816135d0565b92915050565b600082601f83011261206057600080fd5b8135612070848260208601611f7f565b91505092915050565b600082601f83011261208a57600080fd5b813561209a848260208601611fbd565b91505092915050565b6000813590506120b2816135e7565b92915050565b6000602082840312156120ca57600080fd5b60006120d884828501611ffb565b91505092915050565b600080604083850312156120f457600080fd5b600061210285828601611ffb565b925050602061211385828601611ffb565b9150509250929050565b60008060006060848603121561213257600080fd5b600061214086828701611ffb565b935050602061215186828701611ffb565b9250506040612162868287016120a3565b9150509250925092565b6000806000806080858703121561218257600080fd5b600061219087828801611ffb565b94505060206121a187828801611ffb565b93505060406121b2878288016120a3565b925050606085013567ffffffffffffffff8111156121cf57600080fd5b6121db8782880161204f565b91505092959194509250565b600080604083850312156121fa57600080fd5b600061220885828601611ffb565b925050602061221985828601612010565b9150509250929050565b6000806040838503121561223657600080fd5b600061224485828601611ffb565b9250506020612255858286016120a3565b9150509250929050565b60006020828403121561227157600080fd5b600061227f84828501612025565b91505092915050565b60006020828403121561229a57600080fd5b60006122a88482850161203a565b91505092915050565b6000602082840312156122c357600080fd5b600082013567ffffffffffffffff8111156122dd57600080fd5b6122e984828501612079565b91505092915050565b60006020828403121561230457600080fd5b6000612312848285016120a3565b91505092915050565b61232481613366565b82525050565b61233381613378565b82525050565b6000612344826131d7565b61234e81856131ed565b935061235e8185602086016133f6565b61236781613591565b840191505092915050565b600061237d826131e2565b61238781856131fe565b93506123978185602086016133f6565b6123a081613591565b840191505092915050565b60006123b6826131e2565b6123c0818561320f565b93506123d08185602086016133f6565b80840191505092915050565b60006123e9603f8361320f565b91507f226465736372697074696f6e223a224f6e65206f66207468652031305e35302b60008301527f207761797320746f20617272616e67652061206368657373626f617264222c006020830152603f82019050919050565b600061244f60138361320f565b91507f226e616d65223a224368657373626f61726420000000000000000000000000006000830152601382019050919050565b600061248f6032836131fe565b91507f4552433732313a207472616e7366657220746f206e6f6e20455243373231526560008301527f63656976657220696d706c656d656e74657200000000000000000000000000006020830152604082019050919050565b60006124f560028361320f565b91507f222c0000000000000000000000000000000000000000000000000000000000006000830152600282019050919050565b6000612535601c836131fe565b91507f4552433732313a20746f6b656e20616c7265616479206d696e746564000000006000830152602082019050919050565b60006125756024836131fe565b91507f4552433732313a207472616e7366657220746f20746865207a65726f2061646460008301527f72657373000000000000000000000000000000000000000000000000000000006020830152604082019050919050565b60006125db6019836131fe565b91507f4552433732313a20617070726f766520746f2063616c6c6572000000000000006000830152602082019050919050565b600061261b602c836131fe565b91507f4552433732313a206f70657261746f7220717565727920666f72206e6f6e657860008301527f697374656e7420746f6b656e00000000000000000000000000000000000000006020830152604082019050919050565b6000612681600e8361320f565b91507f22626f6172645374617465223a220000000000000000000000000000000000006000830152600e82019050919050565b60006126c16038836131fe565b91507f4552433732313a20617070726f76652063616c6c6572206973206e6f74206f7760008301527f6e6572206e6f7220617070726f76656420666f7220616c6c00000000000000006020830152604082019050919050565b600061272760018361320f565b91507f22000000000000000000000000000000000000000000000000000000000000006000830152600182019050919050565b6000612767600c8361320f565b91507f266d696e744e756d6265723d00000000000000000000000000000000000000006000830152600c82019050919050565b60006127a7602a836131fe565b91507f4552433732313a2062616c616e636520717565727920666f7220746865207a6560008301527f726f2061646472657373000000000000000000000000000000000000000000006020830152604082019050919050565b600061280d6029836131fe565b91507f4552433732313a206f776e657220717565727920666f72206e6f6e657869737460008301527f656e7420746f6b656e00000000000000000000000000000000000000000000006020830152604082019050919050565b6000612873602e836131fe565b91507f45524337323155524953746f726167653a2055524920736574206f66206e6f6e60008301527f6578697374656e7420746f6b656e0000000000000000000000000000000000006020830152604082019050919050565b60006128d96020836131fe565b91507f4552433732313a206d696e7420746f20746865207a65726f20616464726573736000830152602082019050919050565b600061291960018361320f565b91507f7d000000000000000000000000000000000000000000000000000000000000006000830152600182019050919050565b60006129596031836131fe565b91507f45524337323155524953746f726167653a2055524920717565727920666f722060008301527f6e6f6e6578697374656e7420746f6b656e0000000000000000000000000000006020830152604082019050919050565b60006129bf602c836131fe565b91507f4552433732313a20617070726f76656420717565727920666f72206e6f6e657860008301527f697374656e7420746f6b656e00000000000000000000000000000000000000006020830152604082019050919050565b6000612a256029836131fe565b91507f4552433732313a207472616e73666572206f6620746f6b656e2074686174206960008301527f73206e6f74206f776e00000000000000000000000000000000000000000000006020830152604082019050919050565b6000612a8b602f836131fe565b91507f4552433732314d657461646174613a2055524920717565727920666f72206e6f60008301527f6e6578697374656e7420746f6b656e00000000000000000000000000000000006020830152604082019050919050565b6000612af160018361320f565b91507f7b000000000000000000000000000000000000000000000000000000000000006000830152600182019050919050565b6000612b316021836131fe565b91507f4552433732313a20617070726f76616c20746f2063757272656e74206f776e6560008301527f72000000000000000000000000000000000000000000000000000000000000006020830152604082019050919050565b6000612b97601d8361320f565b91507f646174613a6170706c69636174696f6e2f6a736f6e3b6261736536342c0000006000830152601d82019050919050565b6000612bd76031836131fe565b91507f4552433732313a207472616e736665722063616c6c6572206973206e6f74206f60008301527f776e6572206e6f7220617070726f7665640000000000000000000000000000006020830152604082019050919050565b6000612c3d600e8361320f565b91507f226d696e744e756d626572223a220000000000000000000000000000000000006000830152600e82019050919050565b6000612c7d60498361320f565b91507f22696d616765223a2268747470733a2f2f6170692e71756575652e626f742f6e60008301527f66742f76312f63686573732f73766746726f6d426f61726453746174653f626f60208301527f61726453746174653d00000000000000000000000000000000000000000000006040830152604982019050919050565b612d05816133d0565b82525050565b6000612d1782856123ab565b9150612d2382846123ab565b91508190509392505050565b6000612d3a82612ae4565b9150612d4582612442565b9150612d5182886123ab565b9150612d5c826124e8565b9150612d67826123dc565b9150612d7282612674565b9150612d7e82876123ab565b9150612d89826124e8565b9150612d9482612c30565b9150612da082866123ab565b9150612dab826124e8565b9150612db682612c70565b9150612dc282856123ab565b9150612dcd8261275a565b9150612dd982846123ab565b9150612de48261271a565b9150612def8261290c565b91508190509695505050505050565b6000612e0982612b8a565b9150612e1582846123ab565b915081905092915050565b6000602082019050612e35600083018461231b565b92915050565b6000608082019050612e50600083018761231b565b612e5d602083018661231b565b612e6a6040830185612cfc565b8181036060830152612e7c8184612339565b905095945050505050565b6000604082019050612e9c600083018561231b565b612ea96020830184612cfc565b9392505050565b6000602082019050612ec5600083018461232a565b92915050565b60006020820190508181036000830152612ee58184612372565b905092915050565b60006060820190508181036000830152612f078186612372565b9050612f166020830185612cfc565b612f23604083018461231b565b949350505050565b60006020820190508181036000830152612f4481612482565b9050919050565b60006020820190508181036000830152612f6481612528565b9050919050565b60006020820190508181036000830152612f8481612568565b9050919050565b60006020820190508181036000830152612fa4816125ce565b9050919050565b60006020820190508181036000830152612fc48161260e565b9050919050565b60006020820190508181036000830152612fe4816126b4565b9050919050565b600060208201905081810360008301526130048161279a565b9050919050565b6000602082019050818103600083015261302481612800565b9050919050565b6000602082019050818103600083015261304481612866565b9050919050565b60006020820190508181036000830152613064816128cc565b9050919050565b600060208201905081810360008301526130848161294c565b9050919050565b600060208201905081810360008301526130a4816129b2565b9050919050565b600060208201905081810360008301526130c481612a18565b9050919050565b600060208201905081810360008301526130e481612a7e565b9050919050565b6000602082019050818103600083015261310481612b24565b9050919050565b6000602082019050818103600083015261312481612bca565b9050919050565b60006020820190506131406000830184612cfc565b92915050565b6000604051905081810181811067ffffffffffffffff8211171561316d5761316c613562565b5b8060405250919050565b600067ffffffffffffffff82111561319257613191613562565b5b601f19601f8301169050602081019050919050565b600067ffffffffffffffff8211156131c2576131c1613562565b5b601f19601f8301169050602081019050919050565b600081519050919050565b600081519050919050565b600082825260208201905092915050565b600082825260208201905092915050565b600081905092915050565b6000613225826133d0565b9150613230836133d0565b9250827fffffffffffffffffffffffffffffffffffffffffffffffffffffffffffffffff03821115613265576132646134d5565b5b828201905092915050565b600061327b826133da565b9150613286836133da565b92508260ff0382111561329c5761329b6134d5565b5b828201905092915050565b60006132b2826133d0565b91506132bd836133d0565b9250826132cd576132cc613504565b5b828204905092915050565b60006132e3826133d0565b91506132ee836133d0565b9250817fffffffffffffffffffffffffffffffffffffffffffffffffffffffffffffffff0483118215151615613327576133266134d5565b5b828202905092915050565b600061333d826133d0565b9150613348836133d0565b92508282101561335b5761335a6134d5565b5b828203905092915050565b6000613371826133b0565b9050919050565b60008115159050919050565b60007fffffffff0000000000000000000000000000000000000000000000000000000082169050919050565b600073ffffffffffffffffffffffffffffffffffffffff82169050919050565b6000819050919050565b600060ff82169050919050565b82818337600083830152505050565b60005b838110156134145780820151818401526020810190506133f9565b83811115613423576000848401525b50505050565b6000600282049050600182168061344157607f821691505b6020821081141561345557613454613533565b5b50919050565b6000613466826133d0565b91507fffffffffffffffffffffffffffffffffffffffffffffffffffffffffffffffff821415613499576134986134d5565b5b600182019050919050565b60006134af826133d0565b91506134ba836133d0565b9250826134ca576134c9613504565b5b828206905092915050565b7f4e487b7100000000000000000000000000000000000000000000000000000000600052601160045260246000fd5b7f4e487b7100000000000000000000000000000000000000000000000000000000600052601260045260246000fd5b7f4e487b7100000000000000000000000000000000000000000000000000000000600052602260045260246000fd5b7f4e487b7100000000000000000000000000000000000000000000000000000000600052604160045260246000fd5b6000601f19601f8301169050919050565b6135ab81613366565b81146135b657600080fd5b50565b6135c281613378565b81146135cd57600080fd5b50565b6135d981613384565b81146135e457600080fd5b50565b6135f0816133d0565b81146135fb57600080fd5b5056fe416e204e465420772f20494420257320686173206265656e206d696e74656420746f2025734142434445464748494a4b4c4d4e4f505152535455565758595a6162636465666768696a6b6c6d6e6f707172737475767778797a303132333435363738392b2fa264697066735822122057fcd357ab52c7c1844b5b10dd86108ee5142e10f80be647e3fc72706f31e3e464736f6c63430008000033",
    "linkReferences": {},
    "deployedLinkReferences": {}
}